:020000040000FA
:10000000D8060020790100009F010000A101000036
:1000100000000000000000000000000000000000E0
:10002000000000000000000000000000A30100002C
:100030000000000000000000A5010000A701000072
:100040004916000021330000E523000001240000D0
:100050001D2400004124000059270000052800004D
:10006000292A00007D2A0000D12A0000252B00004B
:100070000D2D0000912D0000A9290000CD290000C0
:10008000A9010000A9010000F9250000A901000054
:10009000A9010000A9010000A9010000A9010000B8
:1000A000A9010000A9010000A9010000A9010000A8
:1000B000892900003D150000A9010000A9010000E8
:1000C00000F002F800F048F80CA030C808382418F6
:1000D0002D18A246671EAB4654465D46AC4201D180
:1000E00000F03AF87E460F3E0FCCB646012633426A
:1000F00000D0FB1AA246AB4633431847EC3C000045
:100100000C3D0000103A02D378C878C1FAD85207E3
:1001100001D330C830C101D504680C6070470000BD
:100120000023002400250026103A01D378C1FBD813
:10013000520700D330C100D50B60704710B5782945
:1001400002D100F061F810BD002010BD1FB5C046FF
:10015000C0461FBD10B510BD01F00CF81146FFF7E9
:10016000F5FF03F013F901F024F803B4FFF7F2FFF1
:1001700003BC01F05BF800000F4810490160104912
:10018000016010490160104A10491160104A11497C
:100190001160002101601048804710480047FEE7C9
:1001A000FEE7FEE7FEE7FEE7FEE700000C480D492C
:1001B0000B4A0D4B70470000000100505900000031
:1001C000160000008800000024000050A55A00001E
:1001D000800300501F000000252A0000C10000001D
:1001E000D8020020D8060020D80200200FB405490C
:1001F00010B503AA029800F02DFF10BC08BC04B093
:1002000018470000D000002070B504460D46214676
:100210001068C046C0462168090502D50F4A7A44D5
:1002200002E00E4A7A440E3223460021243305E0D0
:100230000607360F965D5E54491C00090028F7D169
:1002400020680023000705D5702D03D0002901D0B8
:1002500011320223204600F0A7FE70BD1E3B0000B5
:10026000F3B50446002081B082E0E168204688476B
:1002700000287FD0252802D06268A16875E0E16877
:1002800020460026884705460020E0610746A06119
:100290002A2D0BD02946012230390A292BD2002AD7
:1002A00029D0B80000190090816119E00298BA00C5
:1002B000121902C8916102902046E1688847012F17
:1002C00005461AD1E069002822DA202086431FE083
:1002D00000980A21806948430099401930388861A4
:1002E0002046E168884705460120294630390A2919
:1002F00001D20028ECD1012F0AD02E2D08D12046A2
:10030000E16888470546202006437F1C022FBFDB9B
:10031000A069002803DA4042A06101200643F007EB
:1003200001D010208643002D24D0284641381928BA
:1003300003D80120C0020643203520462660294606
:10034000029A1646FFF7FAFE00280BD0012806D0C5
:10035000F61DF008C0000830029086E70AE0361D5E
:10036000029682E762682846A1689047206A401C8E
:1003700020627AE7206AFEBD002203098B422CD35B
:10038000030A8B4211D300239C464EE003460B43E5
:100390003CD4002243088B4231D303098B421CD347
:1003A000030A8B4201D394463FE0C3098B4201D339
:1003B000CB01C01A524183098B4201D38B01C01A71
:1003C000524143098B4201D34B01C01A52410309E8
:1003D0008B4201D30B01C01A5241C3088B4201D397
:1003E000CB00C01A524183088B4201D38B00C01A44
:1003F000524143088B4201D34B00C01A5241411A6B
:1004000000D201465241104670475DE0CA0F00D04D
:100410004942031000D34042534000229C46030946
:100420008B422DD3030A8B4212D3FC22890112BACC
:10043000030A8B420CD3890192118B4208D38901A4
:1004400092118B4204D389013AD0921100E08909BC
:10045000C3098B4201D3CB01C01A524183098B429D
:1004600001D38B01C01A524143098B4201D34B0186
:10047000C01A524103098B4201D30B01C01A5241E9
:10048000C3088B4201D3CB00C01A524183088B4270
:1004900001D38B00C01A5241D9D243088B4201D3F9
:1004A0004B00C01A5241411A00D2014663465241E4
:1004B0005B10104601D34042002B00D549427047E3
:1004C00063465B1000D3404201B50020C046C046E1
:1004D00002BD704770477047F0B50C46871A9C41C3
:1004E0000D46861A9D4103D2C01BA141D21963411A
:1004F0000D0D1F0DC54EEC1BAE435BD07E05760D7A
:1005000052D02D05AC46A943DD020123ED0A1B059F
:100510001D4320231B1B24D41646E6400027301819
:100520004F412946E1407C189D4000212818614137
:100530000C0D27D161449A4012D50023401C59412B
:1005400052000DD140084000B14A4B00934207D3FE
:1005500005204007081801D5511000E0AD490020E2
:10056000F0BD6B00002A00D001229A18203C1F2306
:100570001B1B01D5002303E0E5400024281861413E
:100580000C0DD7D0012424050919C407CD07400854
:100590004908E40F28436144002CD5D00024401CB6
:1005A00061419A40D0D1CDE76A05520DD8D1C90F2B
:1005B000C907D4E7964D4E00002801D0012400E081
:1005C000002434195F00002A01D0012600E0002633
:1005D000BE19914FAC420BD8AE4209D8B44205D0F7
:1005E000BD00AC42BCD010461946F0BD9942FCD0CB
:1005F00000203946F0BDF0B50C460F46811A9F41E8
:100600002546861A9D4106D20125ED076F40401A06
:10061000BC4152187B41210D1E0D8D1BAC467B4DFC
:100620008D437ED075056D0D7CD00D05AE46AC4377
:100630001B031B0B794D52429D41202366469B1B99
:1006400014D337461646FE403018002767416446EB
:100650002E462641BC199D4000262818664116D416
:10066000714671189A4025D5012320E093182A4637
:100670006A415200002B00D0521C203E1E239B1BBF
:10068000002B60DD3541EE1728186641E8D50018CB
:1006900076415B1C9A4000D3401C4B05F31815248F
:1006A000E3400FD3002B51D071467118D30FC018FF
:1006B00001D3491CF0BD0123DB079A42FAD140085F
:1006C0004000F0BD01225205B21801D1002853D0DC
:1006D0000123CC0ADB029943891E002A08D1020CAF
:1006E00003D0020C0004103902E002460020203939
:1006F0000023550B05D112020823550B01D15201DD
:100700000D23550C01D112011B1DD50C01D19200F6
:100710009B1C150D01D152005B1C2025EE1A0546CD
:1007200001E02BE021E0F54015439840CA1AE107AB
:1007300069181305C918002AC3DA032040070818EE
:10074000C10FC9070FE071466118F0BDF1074008FD
:100750000843711071444A000CD001235B059A4292
:10076000F3D2C90FC9070020F0BD4905490D25D1B5
:10077000002001E00028F4D10021F0BD244D6600E6
:10078000002801D0012100E0002171185F00002A3B
:1007900001D0012600E00026BE191F4FA9420FD844
:1007A000AE420DD8B14207D0BD00A94206D01946CD
:1007B000A80241401046F0BD9C4201D02146F0BD48
:1007C00000203946F0BD30B40C465C4004D501240D
:1007D000E407634030BC0EE730BC7DE630B40C4625
:1007E0005C4004D50124E407634030BC74E630BCAF
:1007F00001E730B40124E40761400D465D4001D4B7
:1008000030BC69E6634030BCF5E60000FF0700003D
:100810000000E0FF0000F07F0000F87F0000F0FF24
:10082000F0B59446FB4A0E091D09174616401540BF
:100830000C46B2435C408BB0002A7ED0AF437CD0E4
:10084000002D7BD0002E79D0E20F3243521BFF24C3
:10085000A40412190792420DCC02C7021443604649
:10086000420DD9021143C2020120C00704430143D3
:100870000194080C140CA44604040B46A3430894EA
:1008800064462404E44DA2430994040A7D44641997
:10089000803C24780546654301262D19F605751B15
:1008A0006C43E40CA41C490B61430919B501691A96
:1008B0000E0C3504A94361436643090C711889097C
:1008C0000691F90701D00121C907039101997F0819
:1008D000CC0727434C08069DE10B4D43290C654688
:1008E0000E464D4346437D1BB44100950D46019491
:1008F0005D4300242E0C240434430E462F0456433B
:10090000350C2F43039D3604AD1B039502D2002600
:100910007F1C7441009E019DF61BA54109040096B1
:1009200001950591AC08069900256143090C0F4615
:1009300047437C0BED04254301E02AE14FE1FE042F
:1009400064460F4667437C0B34430294039CFE04C9
:10095000A41B039404D2029C0026641C75410294DB
:10096000029F009E019CF61BAC4101940C465C4327
:100970000096660F0025E700ED000C463543544312
:10098000660F3E43039FE4003C1B039402D2002405
:10099000761C6541009F019CBE1BAC41B509A406B5
:1009A0002C43039DB606AD092E43039DC900AD0639
:1009B0000395059D691805910699E50B6943090C96
:1009C00065460F466F430D464543AE463D46751B93
:1009D0007746BC4100950D4601945D4300242E0CE2
:1009E00024040F46344357432D043E0C2E430296F5
:1009F0002646039D3C042C1B039405D2029C3546DD
:100A0000641C00266E410294009F029D019C7D1B88
:100A1000B44100958D050495059D890A69180591D5
:100A20000699A5086943090C0D46454300206E0B45
:100A3000C0043043EF040D46664675436E0B3E43DB
:100A4000039FED047D1B02D20027761C7841009F96
:100A5000BE1B844108460194B44658430024460F07
:100A6000E4003443C60008465043470F3743C000F4
:100A70002D1A02D200207F1C444166460198F61BC5
:100A8000A041B40980062043AC09B6062643B64609
:100A90004C02049EAD06059FA419002179410591E1
:100AA000089976461943099BB61913430022404121
:100AB0009446EA0F6F0032430546D61A8D41A8428C
:100AC00003D90120844632462846C60F9518404176
:100AD000FA0F2A437D00039565466F00B646D61A85
:100AE0000546B4468D417646002E01D1A84202D972
:100AF0007F1C62462846C50FAC4695184041039AB4
:100B00000646D20F2A437D00D31A8E416146002942
:100B100001D1B04202D96D1C30461A46104301D0B3
:100B2000012004436802059A002100195141022264
:100B3000002902DB012200184941079B4C051B14C8
:100B4000D318C90A1B05CB1807994205C00AC90763
:100B500020435940002A09D00124A24006D3002492
:100B6000401C6141002A01D1400840002B4A002B63
:100B700004DB1C46144201D09A4325D10122079878
:100B80009206904233DC032040070818C10FC907C2
:100B900034E00E4607184E41214D7A42B5411BD331
:100BA000624696181D465D411D4A7642AA4113D3FE
:100BB000012252054D00D5420BD15C00D4420BD02E
:100BC0004B4003D5920211430BB0F0BD49004908D8
:100BD000FAE7E10FC90711E000201249F4E70F48D6
:100BE000014201D0214605E00342F5D0F1E705209E
:100BF000400709180C480143C01241400020E3E7B8
:100C00005940504010B54B40424059405040FFF7CA
:100C100007FE10BD0000FF07D83400000000F07F81
:100C20000000E0FF0000F87FFFFFFF7FCB02420DD6
:100C300010B51A430B1504D00124E4072243002BFE
:100C400006DB0A4CE31A05D41046D840FF2B00DD22
:100C5000002010BD4A00002800D001201018044ACE
:100C60009042F5D8C817C04310BD00001E04000014
:100C70000000E0FF1F22030C02D10F22000402D06B
:100C8000030E03D004E0002001467047083A00023A
:100C9000030F01D1121F0001830F01D1921E8000AA
:100CA000002801DB521E4000120551184205C012F7
:100CB000411810467047C10FC90700D040420122B9
:100CC00092071143D6E701218907D3E7F0B59D4C80
:100CD0000D092646AC46AE430D465D4089B0002E58
:100CE0007ED01E092746B7437AD067462740ED0FCE
:100CF0003D43264075D02401214272D07419FF254E
:100D0000AD04641B0494CC02D90201231B05E40A40
:100D1000C90A1C4319432401030F1C430B0105019D
:100D2000110F0B43A00B81032D0916018C43A90B56
:100D30008A0395439A0B9703BB4336099C46B30B32
:100D40009F03BE430F465F4303972F4677430296A8
:100D50004E19BE460796029FDF197E430597039FF3
:100D6000F71B7646BE1B77463F0100970196039F0F
:100D7000B60BF619B646019E009FB604BF1902D302
:100D80007646761CB64676467600002F01D00127BF
:100D90003E4367467D430695029D27466F43009775
:100DA0007F00069DBE196F00BD1966469619079F04
:100DB000AE467743069D03967D1B01950619059D5A
:100DC000009F75430296EE1B019D51436D1A074625
:100DD0005F43F31B019500937546EB0606D001E0D7
:100DE00091E08DE06B0901252B4300E06B090026A3
:100DF0003546B6460E0A2D0609063543CB1876460B
:100E00007541AE4600213D0A09063E062943F61803
:100E100075466941B646019B00269D0DB7022F43DA
:100E20009B0276469B194F41009900258E0DAD021D
:100E30008902C91835437D41504362465443039BA0
:100E4000029A5A43121A161B0022B70E9301B601DA
:100E500075193B435341070B1205000545193A43E9
:100E60005A4100200306270A20063B434418142653
:100E70006B41AB4200D2521C01204002824203D39C
:100E800015260221C94301E00321C9432020851B07
:100E9000AA401F46AF40F34013432046049AF04057
:100EA0001214891809055A1804993843C907514082
:100EB000AC4009D001239C4006D30023401C59417B
:100EC000002C01D1400840001F4B002A03DB1A42CE
:100ED00001D08B4312D1012204989206904207DB85
:100EE00005204007091819480143C012414004E099
:100EF000032040070818C10FC907002009B0F0BD42
:100F00000020E907FAE706180C464C4110487642E3
:100F1000A04114D394181A465A410D486442904196
:100F20000DD3012049004005814208D35900814278
:100F300005D3E90F044AC90700201143DEE700206A
:100F40000449DBE70000FF070000F07FFFFFFF7FA1
:100F50000000E0FF0000F87F0121C90541184A00A8
:100F6000520E0BD0C1100722D206891840075242F8
:100F70008A1802D50922120789187047090206D576
:100F800001464000F9D0C90FC9070020704742024E
:100F900002D000200349704707210905014310468C
:100FA000704700000000F87FFFB504460D4681B091
:100FB000243000902168880604D51022E06991430E
:100FC000216000E001200027A84200DD471B0498B3
:100FD000A1697A191018081AA0612068C00602D405
:100FE0002046C046C046002608E003986268A16813
:100FF000805D9047206A401C761C206204988642DF
:10100000F3DB2068C0060AD52046C046C04606E08D
:101010006268A16830209047206A401C20623846F0
:101020007F1E0028F4DC07E000986268A168405D3C
:101030009047206A401C206228466D1E0028F3DC81
:101040002046C046C04621680220090600D401207F
:1010500005B0F0BD084B70B50C467B4400F055F868
:101060000546204602F087F9002802D00020C04340
:1010700070BD284670BD00001F230000F8B51C4657
:101080001E4B4E00069D9E420AD89E4201D100286A
:1010900006D166009E4203D89E420AD1002A08D09B
:1010A0000D231B041D4223D02946002000F040F8E8
:1010B000F8BD0B46234305D4A14200D19042EFF383
:1010C0000080F8BD09231B07DD008C4206D0EFF33A
:1010D00000809843611A06D2284304E0101AEFF307
:1010E000008003D3984380F30088F8BD9843F3E76A
:1010F0002346009500F034F8F8BD00000000E0FF42
:1011000001694A1C02610878704700B58FB00291EE
:1011100000210591054901937944039111460490FA
:101120006846FFF79DF80FB000BD0000E5FFFFFF28
:10113000CA0210D54A03520F04D0C803C04301218C
:1011400088407047054AEFF3008108010009104309
:1011500080F30088704700207047000000000030D6
:1011600010B500200249029A00F029F810BD0000D5
:101170000000F87F754600F055F8AE460500694658
:101180005346C008C000854618B020B5FFF70EF8DA
:1011900060BC00274908B6460026C0C5C0C5C0C50A
:1011A000C0C5C0C5C0C5C0C5C0C5403D49008D460D
:1011B00070470446C046C0462046FEF7D6FF10B52D
:1011C0000C461107090F092904D00A290AD0082959
:1011D0000CD104E011460820FFF7AAFF06E05106F3
:1011E00006D501E0510601D50120C007214610BDFA
:1011F000D1060AD5010109090022CB085407490785
:10120000000E1C430006044309E0410F2002490779
:10121000000A0143200E00061D22D1410143084669
:10122000E4E70000004870477802002001491820D8
:10123000ABBEFEE72600020070470000F0B585B0A7
:10124000A948002181710121A84C25466035274617
:1012500018374A1C90002358890063503B587B5034
:10126000A24B30331E585E5018331E585E502B5818
:101270006B509E4B78331858585011B20529E8DB53
:10128000002001F05DF999494861052001F058F905
:10129000964918314861062001F052F9934E3036D4
:1012A0007061042001F04CF934461834606101206B
:1012B00001F046F96861072001F042F9274630370E
:1012C00078610121894A8800145813681B1913603A
:1012D0001832145813681B19136033583268D21827
:1012E0003260824A4832145813681B1913602B5815
:1012F0002A68D2182A6038583A6810183860491C91
:1013000009B20629DEDB794806210068FFF734F8C8
:101310007649086004900C46183406212068FFF7CF
:101320002BF821460860039006213068FFF724F867
:1013300021461831086002900846183000680621DE
:10134000FFF71AF82146303108600190062128681D
:10135000FFF712F82146483108600090084618301F
:1013600000680621FFF708F82146603108600498FC
:10137000FFF7A9FC5E4A5F4BFFF7A8FC00225E4B1B
:10138000FFF74EFA00225D4BFFF733FA00225C4B69
:10139000FFF79CFC5B4A5C4BFFF742FAFFF746FC09
:1013A000514F38707D2103984901884200D921604E
:1013B0002068642801D2642020602068081A0A216D
:1013C00048435249FEF7D8FF474C60700198FFF739
:1013D0007AFC474F474D3A462B46FFF777FC464E7F
:1013E00000223346FFF71CFA0022494BFFF76EFC40
:1013F0000022484BFFF7E7F9FFF718FCE070009870
:10140000FFF761FC3A462B46FFF760FC00223346AB
:10141000FFF706FA0022394BFFF7EBF90022384BB1
:10142000FFF754FC3C4A3D4BFFF7FAF9FFF7FEFB90
:1014300020710298FFF747FC04460D460022334610
:10144000FFF7D7F906460F4600222D4B20462946C6
:10145000FFF73CFC32463B46FFF7E2F904460D46F7
:1014600000267700781C81002D484058FFF774FD56
:1014700022462B4602F064F80DD2FF1C2848B90022
:101480004058FFF769FD22462B4602F027F802D2AA
:101490001548867005E0761C36B2F1208000864241
:1014A000DFD3124878300068FFF70DFC104A114B6B
:1014B000FFF70CFC0022104BFFF7B2F9194A1A4B48
:1014C000FFF797F90022194BFFF700FC184A194B58
:1014D000FFF7A6F90022184BFFF775F9FFF7A6FBF7
:1014E0000149487105B0F0BD1C000020D400002067
:1014F000333333333333134000FEAF400000044036
:101500000000244014AE47E17A14EE3F3C0F000087
:10151000000026400000E03FA167B3EA73B5D53F65
:10152000A83500005EBA490C022BE73F00408F400F
:101530009A9999999999FD3F0000444070B5154CCE
:10154000206B154E154DC00709D02968002901D020
:1015500030688847206BC008C000401C2063206BA7
:10156000800709D56968002901D070688847206B19
:10157000C008C000801C2063206B400709D5A96803
:10158000002901D0B0688847206BC008C000001D4A
:10159000206370BD00000E40B40100203C0000201C
:1015A000F8B5052000F04AF9062000F047F90920B7
:1015B00000F044F90A2000F041F90B2000F03EF958
:1015C000012300930223F3221946002000F0C4F8FF
:1015D000012005210907C8611948416A0322120246
:1015E0009143FF31FF31023141620025154E3746EC
:1015F0001837002000F0A4FFAC003051052000F0A7
:101600009FFF3851062000F09BFF0E4930310851F2
:10161000042000F095FF0B4948310851012000F0EB
:101620008FFF084960310851072000F089FF054904
:10163000783108516D1CEDB2062DDAD3F8BD0000EB
:1016400000000E40D4000020052000078169102210
:101650001143816102480068002800D000477047AC
:1016600058000020F8B51446FEF786FE0746012113
:1016700000074907000F4A10022808D22068884353
:1016800020602068904320603E09B61E27E0206855
:1016900008432060206810432060BE1E1348864225
:1016A0001DDD2068084320602068904320600825E5
:1016B0003846691CFEF760FE03290DD220680F2111
:1016C0000906884329070909084320603846691C30
:1016D000FEF752FE861E02E06D1C102DE8DB20682E
:1016E000B1B2000C000408432060F8BDFFFF000009
:1016F000F3B581B00D4600270198FF4302280FD3B0
:10170000002D0DD001240A4E294661430198FEF7B1
:1017100033FE811EB14205D2641E21060843FEBD80
:101720003846FEBD641CFF2CEED93846FEBD0000D5
:10173000FEFFFF00024980004018006880B2704739
:1017400000000E400348006BC00701D00120704725
:101750000020704700000E40FFB505242407E5680F
:10176000012636073543E560E568B543E5601F4C63
:1017700067690C259B07AF431B0F1F436761A36974
:10178000FF273F04BB43099F3F043B43A361A3687A
:101790003343A360164B1C6A012634431C621C159C
:1017A000002811D0186A20431862002910D001299E
:1017B00012D0022915D0186A28431862586A000A04
:1017C000000210435862FFBD186AA0431862ECE79C
:1017D000186AA8431862F1E7186AA843001D186246
:1017E000ECE7186AA84308301862E7E700020050E7
:1017F00000000E400548016BC908C900491C01637F
:10180000016A0122D20211430162704700000E40BA
:10181000400189004018034900224018026000205E
:101820007047000000420050400189004018024902
:10183000401800687047000000420050F0B56A4A46
:10184000052103460324550108260C27090701F04A
:1018500077FD1E10171F272F3737373737373737A2
:10186000424A4F575F676F7A838383839090A8A320
:10187000BFC80020086348638863C8631060AEE097
:10188000C86B01229203104340229043C863A6E034
:10189000C86B03221203104330229043C8639EE0BA
:1018A000486B0F2212031043F0229043486396E0E6
:1018B000086B0F2212031043F022904308638EE05E
:1018C0004B6B0122C41C1546A540401FAB43824010
:1018D00013434B6383E0C86B0122920290430422BE
:1018E0001043C8637BE0C86BA8433043C86376E00D
:1018F000C86B01221203904310221043C8636EE0AC
:10190000C86B01225203904320221043C86366E053
:10191000486BFF22013210434008400048635EE0FC
:10192000486B01225202104302229043486356E062
:10193000C86B0322120290432043C863086B2843FC
:10194000B84308634BE04A6B032080020243BA436A
:101950004A63086B086342E08A6B1538400003460F
:10196000083325469C4022432C468440A2438A6388
:1019700035E0192802D01A2807D030E0106803217A
:10198000090288432043106029E01068032189027E
:1019900088433843106022E0886B000C0004FF305D
:1019A0008863086B000C0004FF300863C86B284391
:1019B000B043C863C86B03239B039843C0231843F9
:1019C000C86310689901884330210843106006E01D
:1019D0001068032189038843C02108431060002058
:1019E000F0BD0248F0BD0000400000500189FFFF3B
:1019F00010B5124B8001C018032349008B40002A08
:101A000009D0012A07D0022A05D0032A02D1016891
:101A10001943016010BD04689C430460012A07D08B
:101A2000022AF7D1026802238B401A43026010BDDC
:101A3000026801238B401A43026010BD0040005031
:101A4000400189004018034901224018026000202B
:101A50007047000000420050094908684022904346
:101A6000086005200007C26889150A43C260C26881
:101A70008A43C260034882688A43826000207047BC
:101A8000000002400002005010B50024002800D0E1
:101A90002024002901D010200443002A01D008206E
:101AA0000443002B01D004200443034801683C2276
:101AB00091432143016010BD0000024010B5810038
:101AC00010480A2200685043FEF756FC401D0A21C8
:101AD000FEF752FC401E0C498B68FF220132134373
:101AE0008B6005210907CB681343CB60CB68934318
:101AF000CB6006490A6840231A430A600861002047
:101B000010BD000000000020000200500000024054
:101B100000487047001BB7001FB5002013494C68F0
:101B20000B688A68C9680194009302920391104C73
:101B3000216A090301D50F4A00E00F4A216AC9034F
:101B400012D4206A8004C10E206A891CC005C00D11
:101B5000801C5043FEF710FC216A6A460904890F75
:101B600089005158FEF708FC04B010BD303D00005C
:101B70000002005000805101001BB70070B58A07B9
:101B80000346920F4C0733480C269500640F01F072
:101B9000D7FB0C58534B433B332A211A07130C5FD6
:101BA000C169B1432943C16150E0C169C023994370
:101BB00092011143C16149E0C16930239943120187
:101BC0001143C16142E042699200920889070A43C9
:101BD00042613BE0426903231B0789079A43890856
:101BE0000A43426132E0426903231B0689079A4394
:101BF00089090A43426129E041690722120591439C
:101C000022051143416121E04169072212049143F9
:101C100022041143416119E04169072212039143F3
:101C200022031143416111E04169072212029143ED
:101C300022021143416109E04169B14329434161F5
:101C400004E041698908890011434161002070BDA9
:101C5000014870BD000200500496FFFF104A0028A2
:101C600005D001280BD0022811D00E48704710680B
:101C7000C90740084000C90F084310600EE0106813
:101C80000423C9079843490F0843106006E0106811
:101C90000823C9079843090F0843106000207047C4
:101CA000000200500396FFFF10B51D4A51030028A3
:101CB00008D0012811D01B4A022819D0032822D0AD
:101CC000194810BD1068084310600221082000F078
:101CD000FFFC082000F0F2FC1FE0106A08431062CD
:101CE0000221092000F0F4FC092000F0E7FC14E0D8
:101CF00010680843106002210A2000F0E9FC0A2065
:101D000000F0DCFC09E0106A0843106202210B209D
:101D100000F0DEFC0B2000F0D1FC002010BD000024
:101D200000000140000011400197FFFF034801211E
:101D3000016041608160C160704700006000002068
:101D4000F8B50C460025D60601216F4B6F4F0022D7
:101D5000002807D0012838D002286AD0032871D083
:101D60006B48F8BD3868012802D13869002802D0D4
:101D70006748801CF8BD65480161986804273843AE
:101D80009860644F3A60B8680843B8600020142334
:101D900001465943604B5A50401C0028F7D05B481D
:101DA00002634465002000F0DBFB2146FFF7A0FC46
:101DB000411C07D00102090A7960000E2843304314
:101DC00038609BE05248401CF8BD7868012802D179
:101DD0007869002802D04E48801CF8BD4B4841610C
:101DE00098680827384398604A4F3A62B86A0843AF
:101DF000B8620020142301465943474B14335A500C
:101E0000401C0028F6D0414842638465012000F060
:101E1000A7FB2146FFF76CFC411C07D00102090A11
:101E20007962000E28433043386267E03848401C2E
:101E3000F8BDB868012802D1B869002803D0344839
:101E4000801CF8BD2AE0314881619868102738432A
:101E50009860324F3A60B8680843B8600020142395
:101E6000014659432C4B28335A50401C0028F6D0C9
:101E700026488263C465022000F072FB2146FFF70A
:101E800037FC411C07D00102090A7960000E284383
:101E90003043386032E01E48401CD2E7F868012821
:101EA00002D1F869002802D01948801CC9E71748F8
:101EB000C1619868202738439860184F3A62B86A21
:101EC0000843B8620020142301465943124B3C33A7
:101ED0005A50401C0028F6D00C48C2630466032008
:101EE00000F03EFB2146FFF703FC411C08D0010235
:101EF000090A7962000E2843304338620020A0E7C7
:101F00000348401C9DE700000002005060000020D4
:101F10000197FFFF0000014028020020000011404F
:101F2000F0B504460020474F474D0126002C0AD04B
:101F3000012C28D0022C47D0032C03D1EC6C002CB0
:101F400063D03846F0BD2C6C002C01D03846F0BD73
:101F50002E622C6C641C2C6400243C4F05E014257C
:101F600065437D59002D03D0641C012CF7DBF0BDC7
:101F70002046142568433E50C01941608160C2600C
:101F800003612046F0BD6C6C002C01D03846F0BDDA
:101F90006E626C6C641C6C6400252C4F143705E079
:101FA00014246C433C59002C03D06D1C012DF7DB2D
:101FB000F0BD2846142460433E50C0194160816042
:101FC000C26003612846F0BDAC6C002C01D03846DD
:101FD000F0BDAE62AC6C641CAC6400241B4F2837AF
:101FE00005E0142565437D59002D03D0641C012CA8
:101FF000F7DBF0BD2046142568433E50C019416010
:102000008160C26003612046F0BDEE62EC6C641C2E
:10201000EC6400240D4F3C3705E0142565437D59E1
:10202000002D03D0641C012CF7DBF0BD20461425E5
:1020300068433E50C01941608160C2600361204620
:10204000F0BD00000497FFFF600000202802002080
:102050000E4A9103002808D001280AD00C4A022811
:102060000BD003280DD00B48704710680843106050
:102070000AE0106A0843106206E010680843106026
:1020800002E0106A0843106200207047000001401F
:10209000000011400197FFFF70B5324BC3185C6818
:1020A000CD0764086400ED0F2C435C608C070225AB
:1020B000002C02DA5C682C4301E05C68AC435C6095
:1020C0004C070425002C02DA5C682C4301E05C68B4
:1020D000AC435C600C070825002C02DA5C682C43DA
:1020E00001E05C68AC435C601F4DCC0602D55C68C7
:1020F0002C4301E05C68AC435C60CC061025002CEE
:1021000002DA5C682C4301E05C68AC435C608C06DE
:102110002025002C02DA5C682C4301E05C68AC43AB
:102120005C6049064024002902DA5968214301E035
:102130005968A14359600D490D4C002808D04A60E8
:1021400002210D2000F0E6FA01204003206070BD5E
:102150000A6002210C2000F0DDFA0120000320605B
:1021600070BD00000000054000080000C80000200D
:1021700000E100E070B50D46002805D001210905F9
:10218000884201D0504870BDA97900290AD003299E
:1021900008D0012906D0052904D0072902D04A48D1
:1021A000401C70BD2979002908D0012906D00229D8
:1021B00004D0032902D04448801C70BD69790029ED
:1021C00004D0012902D04048C01C70BDE979002923
:1021D0000ED001290CD002290AD0032908D00429E5
:1021E00006D0052904D0062902D03748001D70BD4D
:1021F00005210907354B002823D0CC681A02144367
:10220000CC60CC689443CC609968114399603049A4
:102210004418A06804221043A060A068022108436B
:10222000A060A068F0218843E9790907090E0843F6
:10223000A060A8792021400700280EDAE068084352
:102240000DE0CC68012212041443CC60CC689443A6
:10225000CC60996811439960D9E7E0688843E060F1
:10226000A87910218007002802DAE068084301E01D
:10227000E0688843E060E06808218843A979C907DD
:10228000090F0843E060E068297980088000890729
:10229000890F0843E060E06869799043C907490FF6
:1022A0000843E060206A297AC0094906C001490E46
:1022B0000843206200F082F9224624322968FFF7A1
:1022C000D1F9002070BD00000298FFFF000200500D
:1022D0000000054070B50B4BC41800230125AD0567
:1022E0000CE0002004E0401CA84201D3064870BD69
:1022F000A6697604F7D42068C8545B1C9342F0D3D7
:10230000002070BD000005400198FFFF30B5244A51
:102310008018026B03231A4302634A780123DB030C
:10232000002A02D0C26A1A4301E0C26A9A43C2621A
:10233000C26A8B781202120A1B061A43C262C26A70
:10234000FF250B780135DB07AA43DB0D1A43C26278
:102350000A78144B920702D5C26A1A4301E0C26A96
:102360009A43C2620A78104C520702D5C26A2243CD
:1023700001E0C26AA243C262026AFF242402A243AD
:10238000CC7824022243026282680979AA43C907F1
:10239000C90D0A43826001699943016130BD0000A3
:1023A00000000540000200000004000070B50B4B67
:1023B000C41800230125AD050CE0002004E0401CFA
:1023C000A84201D3064870BDA669F600F7D5C85CDF
:1023D00020605B1C9342F0D3002070BD00000540DC
:1023E0000198FFFF0449042008620448806800281F
:1023F00000D0004770470000C04000504800002057
:102400000449082008620448C068002800D000473A
:1024100070470000C040005048000020064A106A83
:10242000054B4033196A10621962044A1268002A87
:1024300000D01047704700000040005048000020C6
:10244000F0B40A4B186A094C4034216A074D8035B4
:102450002A6A0C26B143186221622A62044B5B6827
:10246000002B01D0F0BC1847F0BC704780400050F2
:102470004800002010B5032200210220FFF7B8FA1F
:10248000032201210220FFF7B3FA032201210220D7
:10249000FFF7AEFA022103220846FFF7A9FA03224A
:1024A00011460220FFF7A4FA032204210220FFF7BD
:1024B0009FFA032205210220FFF79AFA0122062142
:1024C0000220FFF795FA012207210220FFF790FA78
:1024D000032205210020FFF78BFA0421032208467E
:1024E000FFF786FA032205210420FFF781FA002274
:1024F00001211046FFF77CFA002202211046FFF767
:1025000077FA002101220846FFF772FA012207211B
:102510000320FFF76DFA012206210320FFF768FA76
:10252000032101220846FFF763FA03220521104622
:10253000FFF75EFA032204211046FFF759FA10BD97
:1025400010B50446FFF756F9FFF7FCF80028FBD05A
:102550002046FFF7EFF80149886010BD1C000020FD
:1025600010B51249002807D0012805D0022803D051
:10257000032801D0084610BD0D4840694005400FB2
:10258000002807D0012808D0022808D0032809D045
:10259000084810BDFFF7BCFA10BD084610BDFFF794
:1025A000BBFA10BD0448006D10BD00000197FFFF8D
:1025B00000020050008051016000002010B50C485E
:1025C00041698901890F06D041698901890F012973
:1025D00004D0084810BDFFF79BFA10BD80690005C4
:1025E000040FFFF799FA611CFDF7C6FE10BD00004D
:1025F000000200500080510130B4124AD068516985
:10260000CB07114908D05369012423435361C9689A
:10261000002914D030BC084700280BD0382804D03B
:10262000096800290BD030BC08474968002906D04A
:1026300030BC08478968002901D030BC084730BC4D
:102640007047000000000240C001002010B50C4C93
:102650005920206016202060882020600121084633
:10266000FFF7FCFA0020206000F022F900F09CFB4C
:10267000FFF700FFFEF794FF00F004F810BD000024
:102680000001005010B5FFF751FB07210420FFF7B0
:1026900075FA01220A210220FFF752FB0023064AA5
:1026A00005210220FFF73CFC0220FFF7FDFA022083
:1026B000FFF7CEFC10BD0000792B0000C106C90E4B
:1026C00001208840014908607047000000E100E0F7
:1026D0008307FF22DB0E9A408907090E99400028E4
:1026E0000BDA0007000F0838830808489B00181809
:1026F000C36993430B43C3617047830804489B003D
:102700001818036893430B430360704700ED00E023
:1027100000E400E08307FF22DB0E9A408907090EE0
:10272000994000280BDA0007000F08388308084892
:102730009B001818C36993430B43C3617047830818
:1027400004489B001818036893430B4303607047C9
:1027500000ED00E000E400E0F8B5264E7468264D78
:10276000E00705D0012070602868002800D080476D
:10277000A00705D502207060A868002800D0804717
:10278000600705D5042070602869002800D08047C4
:10279000200705D508207060A869002800D0804770
:1027A00034697769E00607D530691449084030611B
:1027B0006868002800D08047E002114C06D53069D7
:1027C00020403061E868002800D08047F80607D52F
:1027D00071690A48014071616869002800D080472A
:1027E000F80206D5706920407061E869002800D0C1
:1027F0008047F8BD40000440D00100201F000F00BA
:102800000F001F00F8B5264E7468264DE00705D06E
:10281000012070602868002800D08047A00705D5F7
:1028200002207060A868002800D08047600705D5A6
:10283000042070602869002800D08047200705D553
:1028400008207060A869002800D080473469776943
:10285000E00607D5306914490840306168680028EF
:1028600000D08047E002114C06D53069204030612D
:10287000E868002800D08047F80607D571690A4843
:10288000014071616869002800D08047F80206D5D0
:10289000706920407061E869002800D08047F8BD69
:1028A00040001440F00100201F000F000F001F0027
:1028B00010B51920FEF7C2FF31488168C2021143EA
:1028C000816081680203114381604169032212071C
:1028D00011434161416992001143416129480168F6
:1028E000090A0902491C01600168FF221202914392
:1028F000FF310131016041687022914341604168BC
:10290000120191434160816808221143816081680E
:10291000C214114381608168120211438160816891
:102920004202114381608168042211438160816801
:102930000215914381608168120291438160816830
:102940000202914381608168102291438160816815
:10295000202291438160FF211431C1606422026111
:102960008161C261416282620163426382680121C6
:102970000A43826003484030C26B0A43C26310BD01
:102980000002005000000440054801684022114345
:10299000016004484068002800D0004770470000EC
:1029A000000200505800002006480168012212046D
:1029B0001143016004484168002901D0806808473C
:1029C0007047000000000340100200200648016824
:1029D000012212041143016004480169002901D059
:1029E0004069084770470000004003401002002083
:1029F00000B500F001F800BD06498A691202FCD456
:102A000008600A2804D188690002FCD40D200860FF
:102A10007047000000000540014908617047000050
:102A2000000004407047000070B511498868012219
:102A3000104388600F48016B491C0163006A00283D
:102A400015D000250C4E2846142148433158002942
:102A50000AD08419A068401EA060002804D1E16853
:102A6000206988476068A0606D1C012DEBDB70BD9C
:102A700000000140600000202802002070B51149CC
:102A8000886A0122104388620F48416B491C4163E8
:102A9000406A002815D000250C4E284614214843D2
:102AA000315800290AD08419A068401EA06000286F
:102AB00004D1E168206988476068A0606D1C012D21
:102AC000EBDB70BD00000140600000203C020020F4
:102AD00070B5114988680122104388600F48816BE6
:102AE000491C8163806A002815D000250C4E2846B9
:102AF00014214843315800290AD08419A068401E87
:102B0000A060002804D1E168206988476068A0605F
:102B10006D1C012DEBDB70BD00001140600000203A
:102B20005002002070B51149886A01221043886262
:102B30000F48C16B491CC163C06A002815D000252D
:102B40000C4E284614214843315800290AD08419D4
:102B5000A068401EA060002804D1E1682069884771
:102B60006068A0606D1C012DEBDB70BD00001140A2
:102B7000600000206402002010B50F490120087099
:102B80000E480078012809D102210320FEF74CFEEF
:102B900000280CD002210320FEF73AFE012150202C
:102BA00000F03EFC014606A0FDF720FB10BD02210F
:102BB0000320FEF745FFF1E7220000202A00002055
:102BC00057686F20616D20493A25780D0A00000092
:102BD000FEB50024484F7868400840007860F869E6
:102BE0000126C00700285ED002210020FEF71CFE4F
:102BF000424D012811D0F220E871414806700122AF
:102C000001A90020FFF766FB68460079AA281ED0BC
:102C10007868304378600020FEBD01210020FEF777
:102C200003FE012809D0F020E87102210320FEF7FD
:102C3000EFFD334900200870E1E7F520E87102213B
:102C40000320FEF7FDFE2E4900200870D7E7012281
:102C500069460020FFF73EFB68460079AA2846D166
:102C6000684601782548C079814240D1042225492F
:102C70000020FFF72FFB234D0020AA78291DFFF726
:102C800029FB0020AA78D11C04E02B5C1B19DCB2C4
:102C9000401CC0B28142F8D81A481B49C01C105CC5
:102CA000A04201D10E7022E0002008701549AA222E
:102CB00014310A70FF224A70104AD2798A700322B6
:102CC000CA704E220A712A784A7145228A71C871E7
:102CD0000120CA790B5CD218CA71401CC0B2072807
:102CE000F7D30849082214310020FFF75FFB78680A
:102CF00030437860FEBD0000000005402E0000203B
:102D00002A00002064010020280000200348C06938
:102D100003490968002900D00847704700000540B2
:102D2000C8000020F8B50024164D6868400840002F
:102D30006860E8690126C00700281FD00122170536
:102D400069463846FFF7C6FA68460078232815D149
:102D500007220D493846FFF7BDFA00200A490A5CF0
:102D60001219D4B2401CC0B20628F8D3897907489A
:102D7000A14201D1067001E0002101706868304372
:102D80006860F8BD000015408C010020290000207B
:102D90000348C06903494968002900D008477047C3
:102DA00000001540C800002030B585B01320FEF7A4
:102DB00045FD1420FEF742FD4B20C0010290032088
:102DC0006946087300244C738C73CC7301252D0560
:102DD00002A92846FFF7CEF9002805D015A0FDF777
:102DE00005FA002005B030BDE1204002029002A9A2
:102DF0000020FFF7BFF9002804D013A0FDF7F6F973
:102E00000020EFE70120694648708C7006200870AA
:102E1000CC700C710020FFF779FA104A0121284686
:102E2000FFF73AF90E4A01210020FFF735F901209A
:102E3000D8E700005541525430206F70656E20660F
:102E400061696C65640A00005541525431206F700D
:102E5000656E206661696C65640A0000252D0000BE
:102E6000D12B0000F8B5E1480178012972D1002684
:102E700006700020DE4C2654401CC0B21428FAD341
:102E8000AA202070DA49FF204870DA48C07988709B
:102E90000846D74F14380078143FFA7803460321C8
:102EA0004125BF7800F04CFA0FF10920272E354854
:102EB0005C63B2F2EFEEEDECF1000B21E1702571F5
:102EC00060714920A0716E20E071652020726C2035
:102ED00060726D20A0726120E072742020736920FE
:102EE00060736320A0736AE1E17025716071C2486C
:102EF0000078A07163E1E17025716171BF480078CD
:102F0000A0715CE1E17025716071BD480078A0712D
:102F100055E10421E17025716071BA4800782828D4
:102F200005D22D21A1712821081AE07147E12B213A
:102F3000A1712838E07142E10421E17025716071CE
:102F4000B1480078282806D22D21A1712821081A1D
:102F5000E07134E149E12B21A1712838E0712EE1C3
:102F6000E17025716071A9480078A07127E1A04B3C
:102F7000143B002F02D0012F14D020E1E170257105
:102F8000607105210420FEF74FFC002805D10421C3
:102F90000846FEF749FC002801D0A6710FE1012088
:102FA000A0710CE11E46012A21D005210420FEF764
:102FB00047FD04210846FEF743FD0520E07025711A
:102FC0003078607105210420FEF72EFCF1788842EC
:102FD00016D004210846FEF727FCF17888420FD06E
:102FE0004F20A0714B20E07120202072E7E00521E6
:102FF0000420FEF70DFC04210846FEF709FCDCE77F
:103000004520A0715220E0712072D8E0784B143B2B
:10301000002F02D0012F0ED0D1E0E1702571607138
:1030200005210020FEF700FC002801D0A671C6E0B3
:103030000120A071C3E01E46012A16D00521002000
:10304000FEF7FEFC0520E0702571307860710521E7
:103050000020FEF7E9FBF17888420BD04F20A071E9
:103060004B20E07120202072A9E005210020FEF70E
:10307000CFFBE7E74520A0715220E07120729EE06F
:1030800081E06AE04CE01DE000E086E0002F02D025
:10309000012F08D093E0E170257160715548083028
:1030A0008078A0718BE0534901238B704A71052110
:1030B000E170257160714F20A0714B20E0712020DC
:1030C00020727CE0002F02D0012F0ED077E0E1705B
:1030D0002571607102210320FEF7A6FB002801D0B4
:1030E000A6716CE00120A07169E0494F012A0BD064
:1030F000002A0FD0012038700220E07025713C4872
:103100001438007860715AE002210320FEF798FC21
:103110003E70F1E702210320FEF77AFB3E70EBE7F9
:10312000334B143B002F02D0022F0BD047E0042179
:10313000E170257160712F4808300178A1714078E5
:10314000E0713CE02B4901260E70CA701A790A71B1
:103150000221E1702571607131E0002F02D0012F52
:1031600008D02CE0E1702571607122480830C078E9
:10317000A07124E01F4901234B708A710221E17084
:10318000257160711BE0002F19D1E170257160710C
:10319000184808300079A07111E00A21E17025710A
:1031A00060715220A0716520E071732121726072FC
:1031B0007221A1727621E172207364206073012074
:1031C000221D05E08B5C255C5B198B54401CC0B252
:1031D000E1780B1D8342F5D8012000F0BEF8E278BB
:1031E0000349521D0020FFF7E1F8F8BD2800002038
:1031F000780100202E0000201D0000201C0000206F
:1032000020000020210000201E0000201F000020C0
:103210002A000020F8B53F480178012978D1002420
:1032200004703D483D4942780A7082784A70C278FD
:103230008A700279CA70407908710E46083E364D90
:103240003078AA271435012820D1347000202C545E
:10325000401CC0B21428FAD32F700C206870F0788C
:10326000A8703079E870012029792A5C89182971C1
:10327000401CC0B20428F7D30A2000F06EF826499B
:103280000120052214310005FFF790F8707801281D
:103290001DD1747000202C54401CC0B21428FAD3E5
:1032A0002F700D206870B079A8700120E9782A5C31
:1032B0008918E970401CC0B20328F7D30A2000F037
:1032C0004CF81549042214319004FFF76FF8B078D8
:1032D00001281DD1B47000202C54401CC0B2142809
:1032E000FAD32F700A2068707079A8700120E978ED
:1032F0002A5C8918E970401CC0B20328F7D30A2061
:1033000000F02BF80449042214319004FFF74EF822
:10331000F8BD0000290000208C01002036000020AC
:10332000054801680822114301600448416E0029E4
:1033300001D0002008477047004000406000002096
:1033400030B47446641E2578641CAB4200D21D461E
:10335000635D5B00E31830BC184700227D235B01EE
:1033600006E00021491C89B29942FBD3521C92B25B
:103370008242F6D370470020C043704700B5034631
:103380001846FFF735FB184600BD0000FFF75EF951
:103390002049F020087002210320FEF751FB1E494E
:1033A0000120087007210320FEF74AFBFF200F30A1
:1033B000FFF732FB05210020FEF72AFA0421084618
:1033C000FEF726FA05210420FEF722FA002108461E
:1033D000FEF736FB07210320FEF71AFA0321084601
:1033E000FEF716FA06210320FEF72AFB052103202B
:1033F000FEF70EFA04210320FEF722FB074CFFF72D
:1034000031FDFFF707FF20780128F8D1FDF716FFFF
:10341000F5E70000350000202A00002022000020EF
:10342000F8B506460F4600240120FEF747FB0023AF
:103430001A4619460120FEF727FB264D286800078B
:10344000FCD57006060EAE60002301221946184610
:10345000FEF71AFB28680007FCD5F8B2A860002325
:10346000012219461846FEF70FFB28680007FCD515
:103470000023012219461046FEF706FB28680007C4
:10348000FCD5761CAE600023012219461846FEF7D3
:10349000FBFA28680007FCD50020A8600023012261
:1034A00019461846FEF7F0FA0B4804E02146641C62
:1034B000A4B2814202D829680907F7D5A868C4B226
:1034C0000023012211461846FEF7DEFAFEF7C4FA81
:1034D0002046F8BD00000240FF2F000070B5012516
:1034E0000C002D051C4310D4EC4206D4AC420AD487
:1034F000994200D070BD904270BDE94217D4EB42B2
:1035000015D4994270BD894270BDEC4206D5AC42DB
:10351000F9D58B4200D070BD824270BD6D004C0069
:10352000EC4204D25C00EC4201D28B4270BD034CF1
:1035300030B4FDF7A3FD30BC70BD00BF1900160408
:1035400070B501251C002D050C4310D4EC4206D4A7
:10355000AC420AD48B4200D070BD824270BDEB42B7
:1035600017D4E94215D48B4270BD9B4270BDEC422A
:1035700006D5AC42F9D5994200D070BD904270BDDD
:103580006D005C00EC4204D24C00EC4201D2994246
:1035900070BD0FB4034C0CBC03BC30B4FDF76EFD22
:1035A00030BC70BD19001604000020C29A998A43ED
:1035B00000001CC2CDCC8343000018C29A197A4384
:1035C000000014C2CDCC6C43000010C20000604368
:1035D00000000CC200805343000008C29A99474380
:1035E000000004C29A193C43000000C2CD4C314394
:1035F0000000F8C1000027430000F0C133331D4331
:103600000000E8C19A1914430000E0C166660B434C
:103610000000D8C1CD4C03430000D0C16666F7421C
:103620000000C8C13333E9420000C0C10000DC42E1
:103630000000B8C16666CF420000B0C1CDCCC34225
:103640000000A8C10000B9420000A0C129DCAE42C0
:10365000000098C17B94A542000090C148E19C42C3
:10366000000088C152B89442000080C15C0F8D42B6
:10367000000070C10AD78542000060C1F6287E4272
:10368000000050C1295C7142000040C1EC5165420C
:10369000000030C100005A42000020C1AE474F4236
:1036A000000010C1B81E4542000000C15C8F3B42C3
:1036B0000000E0C0E17A32420000C0C085EB294240
:1036C0000000A0C0CDCC2142000080C0B81E1A422C
:1036D000000040C0CDCC1242000000C048E10B42C7
:1036E000000080BFEC51054200000000F628FE41BA
:1036F0000000803F0000F241000000405C8FE64186
:10370000000040409A99DB4100008040AE47D14123
:103710000000A0401F85C7410000C040F628BE4100
:103720000000E040295CB54100000041C3F5AC4118
:10373000000010413D0AA54100002041A4709D41B8
:1037400000003041713D964100004041A4708F411E
:1037500000005041C3F5884100006041CDCC82415A
:103760000000704185EB79410000804148E16E41E5
:1037700000008841F6286441000090417B145A41C2
:1037800000009841D7A350410000A0411F85474148
:103790000000A84152B83E410000B0415C8F364164
:1037A0000000B8415C8F2E410000C04133332741F7
:1037B0000000C841000020410000D04133331941CE
:1037C0000000D84152B812410000E041448B0C4146
:1037D0000000E841F0A706410000F0412506014144
:1037E0000000F841295CF74000000042B81EED409F
:1037F000000004425A64E340000008427B14DA40AF
:1038000000000C424C37D140000010426ABCC84056
:1038100000001442D7A3C0400000184260E5B84041
:1038200000001C423789B14000002042C976AA40FE
:103830000000244277BEA34000002842AE479D40CE
:1038400000002C42D1229740000030427D3F914041
:1038500000003442B29D8B4000003842713D8640EA
:1038600000003C428716814000004042EC51784005
:103870000000444279E96E400000484254E365404C
:1038800000004C427D3F5D4000005042F4FD54403A
:1038900000005442560E4D400000584206814540FB
:1038A00000005C423F353E4000006042643B3740D0
:1038B0000000644275933040000068420E2D2A409B
:1038C00000006C4293182440000070423F351E40B7
:1038D000000074427593184000007842D1221340D2
:1038E00000007C42B6F30D400000804225060940EE
:1038F000000082425839044000008442643BFF3F8C
:10390000000086422B87F63F000088427B14EE3F82
:1039100000008A4254E3E53F00008C427B14DE3F06
:1039200000008E42F0A7D63F00009042EE7CCF3FD1
:10393000000092427593C83F0000944285EBC13F5E
:10394000000096421F85BB3F000098424260B53F91
:1039500000009A42EE7CAF3F00009C425EBAA93F55
:1039600000009E421D5AA43F0000A042A01A9F3FA3
:103970000000A242E7FB993F0000A442B81E953F19
:103980000000A6424E62903F0000A8426DE78B3FC8
:103990000000AA42508D873F0000AC42BC74833FB8
:1039A0000000AE42DBF97E3F0000B0423D0A773FA7
:1039B0000000B242B29D6F3F0000B442B072683F57
:1039C0000000B6423789613F0000B84248E15A3FE3
:1039D0000000BA42E17A543F0000BC427B144E3FE3
:1039E0000000BE422731483F0000C042D34D423F55
:1039F0000000C24208AC3C3F0000C4423D0A373FD1
:103A00000000C64285EB313F0000C842448B2C3F8A
:103A10000000CA429EEF273F0000CC42F853233FEC
:103A20000000CE4252B81E3F0000D042355E1A3F21
:103A30000000D2421904163F0000D442FCA9113FF5
:103A40000000D642F2D20D3F0000D8425EBA093FD4
:103A50000000DA4254E3053F0000DC424A0C023F1A
:103A60000000DE4291EDFC3E0000E0428FC2F53ED8
:103A70000000E242A01AEF3E0000E442B072E83ECD
:103A80000000E642C1CAE13E0000E842E3A5DB3E99
:103A90000000EA420681D53E0000EC423BDFCF3E0B
:103AA0000000EE425EBAC93E0000F042A69BC43E52
:103AB0000000F242DBF9BE3E0000F44223DBB93ED7
:103AC0000000F6426ABCB43E0000F842B29DAF3E30
:103AD0000000FA420C02AB3E0000FC426666A63EC5
:103AE0000000FE42D34DA23E000000432DB29D3E99
:103AF000000001439A99993E000002430681953ED9
:103B00000000034385EB913E00000443F2D28D3E5A
:103B100000000543713D8A3E00000643F0A7863E43
:103B2000000007438195833E000008430000803E6B
:103B30000000094323DB793E00000A4346B6733E8A
:103B400000000B4368916D3E00000C438B6C673E98
:103B500000000D43AE47613E00000E43F6285C3E78
:103B600000000F433D0A573E0000104360E5503E01
:103B700000001143A8C64B3E0000124314AE473E5E
:103B8000000013435C8F423E00001443C9763E3E62
:103B9000000015431058393E000016437D3F353E66
:103BA00000001743E926313E00001843560E2D3E13
:103BB00000001943C3F5283E00001A432FDD243EC0
:103BC00000001B43C1CA213E00001C432DB21D3E14
:103BD00000001D43BE9F1A3E00001E432B87163E69
:103BE00000001F43BC74133E000020434E62103E91
:103BF00000002143DF4F0D3E00002243713D0A3E8D
:103C000000002343022B073E000024439318043E88
:103C1000000025434A0C023E00002643B6F3FD3D5A
:103C200000002743D9CEF73D0000284346B6F33DB8
:103C3000000029436891ED3D00002A43D578E93D15
:103C400000002B434260E53D00002C43643BDF3D18
:103C500000002D43D122DB3D00002E433D0AD73D1D
:103C600000002F43AAF1D23D0000304317D9CE3DCA
:103C70000000314383C0CA3D00003243F0A7C63D77
:103C8000000033435C8FC23D00003443C976BE3D23
:103C900000003543355EBA3D00003643A245B63DCF
:103CA000000037430E2DB23D00003843C520B03D23
:103CB000000039433108AC3D00003A439EEFA73D78
:103CC00000003B4354E3A53D00003C43C1CAA13D75
:103CD00000003D432DB29D3D00003E43E3A59B3DCA
:103CE00000003F43508D973D000040430681953DC5
:103CF000000041437368913D00004243295C8F3DC1
:103D000000004343DF4F8D3D000044434C37893D65
:103D100000004543022B873D00004643B81E853D09
:103D2000000047432506813D00004843B6F37D3D32
:103D3000010000000200000002000000040000007A
:103D400030313233343536373839414243444546D1
:103D500040305800303132333435363738396162CB
:103D6000636465664030780080807F7E7D7C7B7AEE
:103D70007978777676757473727171706F6E6E6D17
:103D80006C6C6B6A6A6968686766666564646363BD
:103D900062616160605F5F5E5E5D5D5C5C5B5B5A43
:103DA0005A595958585757565655555554545353B0
:103DB00052525251515050504F4F4F4E4E4D4D4D0B
:103DC0004C4C4C4B4B4B4A4A4A4949494848484756
:103DD0004747474646464545454444444443434394
:103DE0004342424242414141083E0000000000205F
:103DF000D400000004010000DC3E0000D4000020DC
:103E0000040600002001000000805101160000009F
:103E1000001BB700000000000080510110270000C7
:103E200000805101000000000000000000000000C0
:103E30000000010001000000000000000000000080
:103E40000000000000000000000000000000000072
:103E50000000000000000000000000000000000062
:103E60000000000000000000000000000000000052
:103E70000000000000000000000000000000000042
:103E80000000000000000000000000000000000032
:103E90000000000000000000000000000000000022
:103EA0000000000000000000000000000000000012
:103EB0000000000000000000001BB7000000000030
:103EC00000000000000000000000000000000000F2
:0C3ED000000000000000000000000000E6
:04000005000001797D
:00000001FF
